<!DOCTYPE html>
<html>
  <head>
    <title>V. Blockchain Transactions API</title>
    <meta charset="utf-8">
    <style>
      
body {
  font-family: Helvetica,Arial,sans-serif;
  font-size: 13px;
  font-weight: normal;
  line-height: 18px;
  color: #404040;
}

.container {
  width: 940px;
  margin-left: auto;
  margin-right: auto;
  zoom: 1;
}

pre {
  background-color: #f5f5f5;
  display: block;
  padding: 8.5px;
  margin: 0 0 18px;
  line-height: 18px;
  font-size: 12px;
  border: 1px solid #ccc;
  border: 1px solid rgba(0, 0, 0, 0.15);
  -webkit-border-radius: 3px;
  -moz-border-radius: 3px;
  border-radius: 3px;
  white-space: pre;
  white-space: pre-wrap;
  word-wrap: break-word;
}

td.required .name:after {
  float: right;
  content: "required";
  font-weight: normal;
  color: #F08080;
}

a{
  color: #0069d6;
  text-decoration: none;
  line-height: inherit;
  font-weight: inherit;
}

h1, h2, h3, h4, h5, h6 {
  font-weight: bold;
  color: #404040;
}

h1 {
  margin-bottom: 18px;
  font-size: 30px;
  line-height: 36px;
}
h2 {
  font-size: 24px;
  line-height: 36px;
}
h3{
  font-size: 18px;
  line-height: 36px;
}
h4 {
  font-size: 16px;
  line-height: 36px;
}

table{
  width: 100%;
  margin-bottom: 18px;
  padding: 0;
  border-collapse: separate;
  font-size: 13px;
  -webkit-border-radius: 4px;
  -moz-border-radius: 4px;
  border-radius: 4px;
  border-spacing: 0;
  border: 1px solid #ddd;
}

table th {
  padding-top: 9px;
  font-weight: bold;
  vertical-align: middle;
  border-bottom: 1px solid #ddd;
}
table th+th, table td+td {
  border-left: 1px solid #ddd;
}
table th, table td {
  padding: 10px 10px 9px;
  line-height: 18px;
  text-align: left;
}

    </style>
  </head>
  <body>
    <div class="container">
      <h1>V. Blockchain Transactions API</h1>

        <p class="explanation">Generate blockchain transactions for project to process and submit to blockchain.</p>

      <div class="article">
        <h2>GENERATE TRANSACTION</h2>
        <h3>POST /api/v1/projects/:project_id/blockchain_transactions</h3>
          <p class="explanation">
            Generates a new blockchain transaction for a transfer and locks the transfer for 10 minutes
          </p>

          <h3>Parameters</h3>
          <table class="parameters table table-striped table-bordered table-condensed">
            <thead>
              <tr>
                <th>Name</th>
                <th>Description</th>
              </tr>
            </thead>
            <tbody>
              <tr>
                <td class="required">
                    <span class="name">project_id</span>
                </td>
                <td>
                  <span class="description">project id</span>
                </td>
              </tr>
              <tr>
                <td class="required">
                    <span class="name">transaction[source]</span>
                </td>
                <td>
                  <span class="description">transaction source wallet address</span>
                </td>
              </tr>
              <tr>
                <td class="required">
                    <span class="name">transaction[nonce]</span>
                </td>
                <td>
                  <span class="description">transaction nonce</span>
                </td>
              </tr>
            </tbody>
          </table>

          <h3>Response Fields</h3>
          <table class="response-fields table table-striped table-bordered table-condensed">
            <thead>
              <tr>
                <th>Name</th>
                <th>Description</th>
              </tr>
            </thead>
            <tbody>
              <tr>
                <td>
                    <span class="name">id</span>
                </td>
                <td>
                  <span class="description">transaction id</span>
                </td>
              </tr>
              <tr>
                <td>
                    <span class="name">award_id</span>
                </td>
                <td>
                  <span class="description">transfer id</span>
                </td>
              </tr>
              <tr>
                <td>
                    <span class="name">amount</span>
                </td>
                <td>
                  <span class="description">transaction amount</span>
                </td>
              </tr>
              <tr>
                <td>
                    <span class="name">destination</span>
                </td>
                <td>
                  <span class="description">transaction destination</span>
                </td>
              </tr>
              <tr>
                <td>
                    <span class="name">source</span>
                </td>
                <td>
                  <span class="description">transaction source</span>
                </td>
              </tr>
              <tr>
                <td>
                    <span class="name">nonce</span>
                </td>
                <td>
                  <span class="description">transaction nonce</span>
                </td>
              </tr>
              <tr>
                <td>
                    <span class="name">contract_address</span>
                </td>
                <td>
                  <span class="description">token contract address</span>
                </td>
              </tr>
              <tr>
                <td>
                    <span class="name">network</span>
                </td>
                <td>
                  <span class="description">token network</span>
                </td>
              </tr>
              <tr>
                <td>
                    <span class="name">tx_hash</span>
                </td>
                <td>
                  <span class="description">transaction hash</span>
                </td>
              </tr>
              <tr>
                <td>
                    <span class="name">tx_raw</span>
                </td>
                <td>
                  <span class="description">transaction in HEX</span>
                </td>
              </tr>
              <tr>
                <td>
                    <span class="name">status</span>
                </td>
                <td>
                  <span class="description">transaction status (created pending cancelled succeed failed)</span>
                </td>
              </tr>
              <tr>
                <td>
                    <span class="name">status_message</span>
                </td>
                <td>
                  <span class="description">transaction status message</span>
                </td>
              </tr>
              <tr>
                <td>
                    <span class="name">createdAt</span>
                </td>
                <td>
                  <span class="description">transaction creation timestamp</span>
                </td>
              </tr>
              <tr>
                <td>
                    <span class="name">updatedAt</span>
                </td>
                <td>
                  <span class="description">transaction update timestamp</span>
                </td>
              </tr>
            </tbody>
          </table>

          <h3>Request</h3>

            <h4>Headers</h4>
            <pre class="request headers">Api-Key: 28ieQrVqi5ZQXd77y+pgiuJGLsFfwkWO</pre>

          <h4>Route</h4>
          <pre class="request route highlight">POST /api/v1/projects/46/blockchain_transactions</pre>


            <h4>Body</h4>
            <pre class="request body">{"body":{"data":{"transaction":{"nonce":1,"source":"0x42D00fC2Efdace4859187DE4865Df9BaA320D5dB"}},"method":"POST","nonce":"752954a116789a44d90544c0d6b17837","timestamp":"1582736556","url":"http://example.org/api/v1/projects/46/blockchain_transactions"},"proof":{"signature":"ZDwrPqUwAijJw5lez7BRKBpvPFnY3BaczZcI5z9siZYu/cShabA1ma4KoL6vPDnGw4TKocC7cjPdgiU+BLMBBQ==","type":"Ed25519Signature2018","verificationMethod":"O7zTH4xHnD1jRKheBTrpNN24Fg1ddL8DHKi/zgVCVpA="}}</pre>


            <h3>Response</h3>
              <h4>Headers</h4>
              <pre class="response headers">ETag: W/&quot;da7d6c4563d0ad17c103ed64173ffe2b&quot;</pre>
            <h4>Status</h4>
            <pre class="response status">201 Created</pre>
              <h4>Body</h4>
              <pre class="response body">{
  &quot;id&quot;: 2,
  &quot;awardId&quot;: 24,
  &quot;destination&quot;: &quot;0xAb5801a7D398351b8bE11C439e05C5B3259aeC9B&quot;,
  &quot;source&quot;: &quot;0x42D00fC2Efdace4859187DE4865Df9BaA320D5dB&quot;,
  &quot;amount&quot;: &quot;50.0&quot;,
  &quot;nonce&quot;: 1,
  &quot;contractAddress&quot;: &quot;0x1D1592c28FFF3d3E71b1d29E31147846026A0a37&quot;,
  &quot;network&quot;: &quot;ropsten&quot;,
  &quot;txHash&quot;: &quot;0xa58131a0487550d0abd4a76db853d005c2e34f89bb5ed95a07a2aa0ddd7983be&quot;,
  &quot;txRaw&quot;: &quot;0xf86701822710830186a0941d1592c28fff3d3e71b1d29e31147846026a0a3780b844a9059cbb000000000000000000000000ab5801a7d398351b8be11c439e05c5b3259aec9b000000000000000000000000000000000000000000000002b5e3af16b1880000808080&quot;,
  &quot;status&quot;: &quot;created&quot;,
  &quot;statusMessage&quot;: null,
  &quot;createdAt&quot;: &quot;2020-02-26T17:02:36.726Z&quot;,
  &quot;updatedAt&quot;: &quot;2020-02-26T17:02:36.726Z&quot;
}</pre>
      </div>
    </div>
  </body>
</html>
