<!DOCTYPE html>
<html>
  <head>
    <title>VII. Blockchain Transactions API</title>
    <meta charset="utf-8">
    <style>
      
body {
  font-family: Helvetica,Arial,sans-serif;
  font-size: 13px;
  font-weight: normal;
  line-height: 18px;
  color: #404040;
}

.container {
  width: 940px;
  margin-left: auto;
  margin-right: auto;
  zoom: 1;
}

pre {
  background-color: #f5f5f5;
  display: block;
  padding: 8.5px;
  margin: 0 0 18px;
  line-height: 18px;
  font-size: 12px;
  border: 1px solid #ccc;
  border: 1px solid rgba(0, 0, 0, 0.15);
  -webkit-border-radius: 3px;
  -moz-border-radius: 3px;
  border-radius: 3px;
  white-space: pre;
  white-space: pre-wrap;
  word-wrap: break-word;
}

td.required .name:after {
  float: right;
  content: "required";
  font-weight: normal;
  color: #F08080;
}

a{
  color: #0069d6;
  text-decoration: none;
  line-height: inherit;
  font-weight: inherit;
}

h1, h2, h3, h4, h5, h6 {
  font-weight: bold;
  color: #404040;
}

h1 {
  margin-bottom: 18px;
  font-size: 30px;
  line-height: 36px;
}
h2 {
  font-size: 24px;
  line-height: 36px;
}
h3{
  font-size: 18px;
  line-height: 36px;
}
h4 {
  font-size: 16px;
  line-height: 36px;
}

table{
  width: 100%;
  margin-bottom: 18px;
  padding: 0;
  border-collapse: separate;
  font-size: 13px;
  -webkit-border-radius: 4px;
  -moz-border-radius: 4px;
  border-radius: 4px;
  border-spacing: 0;
  border: 1px solid #ddd;
}

table th {
  padding-top: 9px;
  font-weight: bold;
  vertical-align: middle;
  border-bottom: 1px solid #ddd;
}
table th+th, table td+td {
  border-left: 1px solid #ddd;
}
table th, table td {
  padding: 10px 10px 9px;
  line-height: 18px;
  text-align: left;
}

    </style>
  </head>
  <body>
    <div class="container">
      <h1>VII. Blockchain Transactions API</h1>

        <p class="explanation">Generate blockchain transactions for project to process and submit to blockchain.</p>

      <div class="article">
        <h2>CANCEL TRANSACTION</h2>
        <h3>DELETE /api/v1/projects/:project_id/blockchain_transactions/:id</h3>
          <p class="explanation">
            Marks transaction as cancelled and releases transfer for a new transaction, see GENERATE TRANSACTION for response fields
          </p>

          <h3>Parameters</h3>
          <table class="parameters table table-striped table-bordered table-condensed">
            <thead>
              <tr>
                <th>Name</th>
                <th>Description</th>
              </tr>
            </thead>
            <tbody>
              <tr>
                <td class="required">
                    <span class="name">project_id</span>
                </td>
                <td>
                  <span class="description">project id</span>
                </td>
              </tr>
              <tr>
                <td class="required">
                    <span class="name">id</span>
                </td>
                <td>
                  <span class="description">transaction id</span>
                </td>
              </tr>
              <tr>
                <td class="required">
                    <span class="name">transaction[tx_hash]</span>
                </td>
                <td>
                  <span class="description">transaction hash</span>
                </td>
              </tr>
              <tr>
                <td>
                    <span class="name">transaction[status_message]</span>
                </td>
                <td>
                  <span class="description">transaction status message</span>
                </td>
              </tr>
            </tbody>
          </table>


          <h3>Request</h3>

            <h4>Headers</h4>
            <pre class="request headers">Api-Key: 28ieQrVqi5ZQXd77y+pgiuJGLsFfwkWO
<<<<<<< HEAD
Api-Transaction-Key: SGiXNOF4sliaEmNTkb4c5ybXB7ClE/lG</pre>
=======
Api-Transaction-Key: lYlUWQkyIDKYLRIdC63sV+DerK75gKeX</pre>
>>>>>>> Regenerate docs

          <h4>Route</h4>
          <pre class="request route highlight">DELETE /api/v1/projects/61/blockchain_transactions/12</pre>


            <h4>Body</h4>
            <pre class="request body">{
  "body": {
    "data": {
      "transaction": {
<<<<<<< HEAD
        "tx_hash": "0x12d9e7e616ff080605f0cffa05370f10b02c5ac37b8ca663cdb28593a0f591b8",
=======
        "tx_hash": "0x0b78f107d09a1d9d6960942b2ce50c6816c05ba5a1e748dbfc0d184b76423dfd",
>>>>>>> Regenerate docs
        "status_message": "hot wallet error: crash"
      }
    },
    "url": "http://example.org/api/v1/projects/61/blockchain_transactions/12",
    "method": "DELETE",
<<<<<<< HEAD
    "nonce": "5a635e2565b6d38590d469c5388e222e",
    "timestamp": "1612010907"
=======
    "nonce": "99d31028bc70e00b2d8656fd1dba049c",
    "timestamp": "1611845208"
>>>>>>> Regenerate docs
  },
  "proof": {
    "type": "Ed25519Signature2018",
    "verificationMethod": "O7zTH4xHnD1jRKheBTrpNN24Fg1ddL8DHKi/zgVCVpA=",
<<<<<<< HEAD
    "signature": "THK+hVYffCB9X3OA5CXIKmiCkYpCaTzCDuDSpwT5fmZeRFhoPAb1KvG/az2VkMiqejZpIacw4zvuF/l7dixdCA=="
=======
    "signature": "Zdw03nBg4llqOWp8xEDY6ASyYY8Dxfe7uDnO9o5AadHy8oeSvCeuIfp11HixoaTvC0vw3SwvDrUDoEir0P8EBg=="
>>>>>>> Regenerate docs
  }
}</pre>


            <h3>Response</h3>
              <h4>Headers</h4>
<<<<<<< HEAD
              <pre class="response headers">ETag: W/&quot;d06aa44043fc3c613b775553bf90fe7c&quot;</pre>
=======
              <pre class="response headers">ETag: W/&quot;bfac302c5dfa1e391f1b3d1bf8eaf53b&quot;</pre>
>>>>>>> Regenerate docs
            <h4>Status</h4>
            <pre class="response status">200 OK</pre>
              <h4>Body</h4>
              <pre class="response body">{
  &quot;id&quot;: 12,
  &quot;blockchainTransactableId&quot;: 35,
  &quot;destination&quot;: &quot;0xB4252b39f8506A711205B0b1C4170f0034065b46&quot;,
  &quot;source&quot;: &quot;0x42D00fC2Efdace4859187DE4865Df9BaA320D5dB&quot;,
  &quot;amount&quot;: 1,
<<<<<<< HEAD
  &quot;nonce&quot;: 576711,
  &quot;contractAddress&quot;: &quot;0x1D1592c28FFF3d3E71b1d29E31147846026A0a37&quot;,
  &quot;network&quot;: &quot;ethereum_ropsten&quot;,
  &quot;txHash&quot;: &quot;0x12d9e7e616ff080605f0cffa05370f10b02c5ac37b8ca663cdb28593a0f591b8&quot;,
  &quot;txRaw&quot;: &quot;0xf86a8308ccc7822710830186a0941d1592c28fff3d3e71b1d29e31147846026a0a3780b844a9059cbb000000000000000000000000b4252b39f8506a711205b0b1c4170f0034065b460000000000000000000000000000000000000000000000000000000000000001808080&quot;,
  &quot;status&quot;: &quot;cancelled&quot;,
  &quot;statusMessage&quot;: &quot;hot wallet error: crash&quot;,
  &quot;createdAt&quot;: &quot;2021-01-30T12:48:27.132Z&quot;,
  &quot;updatedAt&quot;: &quot;2021-01-30T12:48:27.238Z&quot;,
=======
  &quot;nonce&quot;: 93265,
  &quot;contractAddress&quot;: &quot;0x1D1592c28FFF3d3E71b1d29E31147846026A0a37&quot;,
  &quot;network&quot;: &quot;ethereum_ropsten&quot;,
  &quot;txHash&quot;: &quot;0x0b78f107d09a1d9d6960942b2ce50c6816c05ba5a1e748dbfc0d184b76423dfd&quot;,
  &quot;txRaw&quot;: &quot;0xf86a83016c51822710830186a0941d1592c28fff3d3e71b1d29e31147846026a0a3780b844a9059cbb000000000000000000000000b4252b39f8506a711205b0b1c4170f0034065b460000000000000000000000000000000000000000000000000000000000000001808080&quot;,
  &quot;status&quot;: &quot;cancelled&quot;,
  &quot;statusMessage&quot;: &quot;hot wallet error: crash&quot;,
  &quot;createdAt&quot;: &quot;2021-01-28T14:46:48.743Z&quot;,
  &quot;updatedAt&quot;: &quot;2021-01-28T14:46:48.847Z&quot;,
>>>>>>> Regenerate docs
  &quot;syncedAt&quot;: null
}</pre>
      </div>
    </div>
  </body>
</html>
