<!DOCTYPE html>
<html>
  <head>
    <title>VII. Blockchain Transactions API</title>
    <meta charset="utf-8">
    <style>
      
body {
  font-family: Helvetica,Arial,sans-serif;
  font-size: 13px;
  font-weight: normal;
  line-height: 18px;
  color: #404040;
}

.container {
  width: 940px;
  margin-left: auto;
  margin-right: auto;
  zoom: 1;
}

pre {
  background-color: #f5f5f5;
  display: block;
  padding: 8.5px;
  margin: 0 0 18px;
  line-height: 18px;
  font-size: 12px;
  border: 1px solid #ccc;
  border: 1px solid rgba(0, 0, 0, 0.15);
  -webkit-border-radius: 3px;
  -moz-border-radius: 3px;
  border-radius: 3px;
  white-space: pre;
  white-space: pre-wrap;
  word-wrap: break-word;
}

td.required .name:after {
  float: right;
  content: "required";
  font-weight: normal;
  color: #F08080;
}

a{
  color: #0069d6;
  text-decoration: none;
  line-height: inherit;
  font-weight: inherit;
}

h1, h2, h3, h4, h5, h6 {
  font-weight: bold;
  color: #404040;
}

h1 {
  margin-bottom: 18px;
  font-size: 30px;
  line-height: 36px;
}
h2 {
  font-size: 24px;
  line-height: 36px;
}
h3{
  font-size: 18px;
  line-height: 36px;
}
h4 {
  font-size: 16px;
  line-height: 36px;
}

table{
  width: 100%;
  margin-bottom: 18px;
  padding: 0;
  border-collapse: separate;
  font-size: 13px;
  -webkit-border-radius: 4px;
  -moz-border-radius: 4px;
  border-radius: 4px;
  border-spacing: 0;
  border: 1px solid #ddd;
}

table th {
  padding-top: 9px;
  font-weight: bold;
  vertical-align: middle;
  border-bottom: 1px solid #ddd;
}
table th+th, table td+td {
  border-left: 1px solid #ddd;
}
table th, table td {
  padding: 10px 10px 9px;
  line-height: 18px;
  text-align: left;
}

    </style>
  </head>
  <body>
    <div class="container">
      <h1>VII. Blockchain Transactions API</h1>

        <p class="explanation">Generate blockchain transactions for project to process and submit to blockchain.</p>

      <div class="article">
        <h2>CANCEL TRANSACTION</h2>
        <h3>DELETE /api/v1/projects/:project_id/blockchain_transactions/:id</h3>
          <p class="explanation">
            Marks transaction as cancelled and releases transfer for a new transaction, see GENERATE TRANSACTION for response fields
          </p>

          <h3>Parameters</h3>
          <table class="parameters table table-striped table-bordered table-condensed">
            <thead>
              <tr>
                <th>Name</th>
                <th>Description</th>
              </tr>
            </thead>
            <tbody>
              <tr>
                <td class="required">
                    <span class="name">project_id</span>
                </td>
                <td>
                  <span class="description">project id</span>
                </td>
              </tr>
              <tr>
                <td class="required">
                    <span class="name">id</span>
                </td>
                <td>
                  <span class="description">transaction id</span>
                </td>
              </tr>
              <tr>
                <td class="required">
                    <span class="name">transaction[tx_hash]</span>
                </td>
                <td>
                  <span class="description">transaction hash</span>
                </td>
              </tr>
              <tr>
                <td>
                    <span class="name">transaction[status_message]</span>
                </td>
                <td>
                  <span class="description">transaction status message</span>
                </td>
              </tr>
            </tbody>
          </table>


          <h3>Request</h3>

            <h4>Headers</h4>
            <pre class="request headers">Api-Key: 28ieQrVqi5ZQXd77y+pgiuJGLsFfwkWO</pre>

          <h4>Route</h4>
          <pre class="request route highlight">DELETE /api/v1/projects/62/blockchain_transactions/10</pre>


            <h4>Body</h4>
            <pre class="request body">{"body":{"data":{"transaction":{"status_message":"hot wallet error: crash","tx_hash":"0x8cacb4ff9e94af173f38e754adb56ccf9458c0e30c5ddfa9ad4e92ac8744c142"}},"method":"DELETE","nonce":"9e3fbcfb0e19ae3de4794a43f0a67cfb","timestamp":"1594054320","url":"http://example.org/api/v1/projects/62/blockchain_transactions/10"},"proof":{"signature":"GQrE32jXqeYA3KnlUByl1kz7ic3XLr7AFAvYXGcrB/hHTndXZHzlW139BeSVWW6is7BHiMUG8L9rL7vUK3rJCg==","type":"Ed25519Signature2018","verificationMethod":"O7zTH4xHnD1jRKheBTrpNN24Fg1ddL8DHKi/zgVCVpA="}}</pre>


            <h3>Response</h3>
              <h4>Headers</h4>
              <pre class="response headers">ETag: W/&quot;7e1ee8b5d500fa85b5fc0f9a280f587e&quot;</pre>
            <h4>Status</h4>
            <pre class="response status">200 OK</pre>
              <h4>Body</h4>
              <pre class="response body">{
  &quot;id&quot;: 10,
  &quot;blockchainTransactableId&quot;: 32,
  &quot;destination&quot;: &quot;0xB4252b39f8506A711205B0b1C4170f0034065b46&quot;,
  &quot;source&quot;: &quot;0x42D00fC2Efdace4859187DE4865Df9BaA320D5dB&quot;,
  &quot;amount&quot;: 1,
  &quot;nonce&quot;: 779431,
  &quot;contractAddress&quot;: &quot;0x1D1592c28FFF3d3E71b1d29E31147846026A0a37&quot;,
  &quot;network&quot;: &quot;ropsten&quot;,
  &quot;txHash&quot;: &quot;0x8cacb4ff9e94af173f38e754adb56ccf9458c0e30c5ddfa9ad4e92ac8744c142&quot;,
  &quot;txRaw&quot;: &quot;0xf86a830be4a7822710830186a0941d1592c28fff3d3e71b1d29e31147846026a0a3780b844a9059cbb000000000000000000000000b4252b39f8506a711205b0b1c4170f0034065b460000000000000000000000000000000000000000000000000000000000000001808080&quot;,
  &quot;status&quot;: &quot;cancelled&quot;,
  &quot;statusMessage&quot;: &quot;hot wallet error: crash&quot;,
  &quot;createdAt&quot;: &quot;2020-07-06T16:52:00.668Z&quot;,
  &quot;updatedAt&quot;: &quot;2020-07-06T16:52:01.012Z&quot;,
  &quot;syncedAt&quot;: null
}</pre>
      </div>
    </div>
  </body>
</html>
