<!DOCTYPE html>
<html>
  <head>
    <title>VII. Blockchain Transactions API</title>
    <meta charset="utf-8">
    <style>
      
body {
  font-family: Helvetica,Arial,sans-serif;
  font-size: 13px;
  font-weight: normal;
  line-height: 18px;
  color: #404040;
}

.container {
  width: 940px;
  margin-left: auto;
  margin-right: auto;
  zoom: 1;
}

pre {
  background-color: #f5f5f5;
  display: block;
  padding: 8.5px;
  margin: 0 0 18px;
  line-height: 18px;
  font-size: 12px;
  border: 1px solid #ccc;
  border: 1px solid rgba(0, 0, 0, 0.15);
  -webkit-border-radius: 3px;
  -moz-border-radius: 3px;
  border-radius: 3px;
  white-space: pre;
  white-space: pre-wrap;
  word-wrap: break-word;
}

td.required .name:after {
  float: right;
  content: "required";
  font-weight: normal;
  color: #F08080;
}

a{
  color: #0069d6;
  text-decoration: none;
  line-height: inherit;
  font-weight: inherit;
}

h1, h2, h3, h4, h5, h6 {
  font-weight: bold;
  color: #404040;
}

h1 {
  margin-bottom: 18px;
  font-size: 30px;
  line-height: 36px;
}
h2 {
  font-size: 24px;
  line-height: 36px;
}
h3{
  font-size: 18px;
  line-height: 36px;
}
h4 {
  font-size: 16px;
  line-height: 36px;
}

table{
  width: 100%;
  margin-bottom: 18px;
  padding: 0;
  border-collapse: separate;
  font-size: 13px;
  -webkit-border-radius: 4px;
  -moz-border-radius: 4px;
  border-radius: 4px;
  border-spacing: 0;
  border: 1px solid #ddd;
}

table th {
  padding-top: 9px;
  font-weight: bold;
  vertical-align: middle;
  border-bottom: 1px solid #ddd;
}
table th+th, table td+td {
  border-left: 1px solid #ddd;
}
table th, table td {
  padding: 10px 10px 9px;
  line-height: 18px;
  text-align: left;
}

    </style>
  </head>
  <body>
    <div class="container">
      <h1>VII. Blockchain Transactions API</h1>

        <p class="explanation">Generate blockchain transactions for project to process and submit to blockchain.</p>

      <div class="article">
        <h2>GENERATE TRANSACTION – TRANSACTABLE ID</h2>
        <h3>POST /api/v1/projects/:project_id/blockchain_transactions</h3>
          <p class="explanation">
            Generates a new blockchain transaction for transactable with supplied id and locks the transactable for 10 minutes
          </p>

          <h3>Parameters</h3>
          <table class="parameters table table-striped table-bordered table-condensed">
            <thead>
              <tr>
                <th>Name</th>
                <th>Description</th>
              </tr>
            </thead>
            <tbody>
              <tr>
                <td class="required">
                    <span class="name">project_id</span>
                </td>
                <td>
                  <span class="description">project id</span>
                </td>
              </tr>
              <tr>
                <td class="required">
                    <span class="name">transaction[source]</span>
                </td>
                <td>
                  <span class="description">transaction source wallet address</span>
                </td>
              </tr>
              <tr>
                <td class="required">
                    <span class="name">transaction[nonce]</span>
                </td>
                <td>
                  <span class="description">transaction nonce</span>
                </td>
              </tr>
              <tr>
                <td>
                    <span class="name">blockchain_transactable_id</span>
                </td>
                <td>
                  <span class="description">transactable id to generate transaction for</span>
                </td>
              </tr>
              <tr>
                <td>
                    <span class="name">blockchain_transactable_type</span>
                </td>
                <td>
                  <span class="description">transactable type to generate transaction for – Award (Default), TransferRule, AccountTokenRecord</span>
                </td>
              </tr>
            </tbody>
          </table>

          <h3>Response Fields</h3>
          <table class="response-fields table table-striped table-bordered table-condensed">
            <thead>
              <tr>
                <th>Name</th>
                <th>Description</th>
              </tr>
            </thead>
            <tbody>
              <tr>
                <td>
                    <span class="name">id</span>
                </td>
                <td>
                  <span class="description">transaction id</span>
                </td>
              </tr>
              <tr>
                <td>
                    <span class="name">blockchain_transactable_id</span>
                </td>
                <td>
                  <span class="description">transactable id</span>
                </td>
              </tr>
              <tr>
                <td>
                    <span class="name">amount</span>
                </td>
                <td>
                  <span class="description">transaction amount</span>
                </td>
              </tr>
              <tr>
                <td>
                    <span class="name">destination</span>
                </td>
                <td>
                  <span class="description">transaction destination</span>
                </td>
              </tr>
              <tr>
                <td>
                    <span class="name">source</span>
                </td>
                <td>
                  <span class="description">transaction source</span>
                </td>
              </tr>
              <tr>
                <td>
                    <span class="name">nonce</span>
                </td>
                <td>
                  <span class="description">transaction nonce</span>
                </td>
              </tr>
              <tr>
                <td>
                    <span class="name">contract_address</span>
                </td>
                <td>
                  <span class="description">token contract address</span>
                </td>
              </tr>
              <tr>
                <td>
                    <span class="name">network</span>
                </td>
                <td>
                  <span class="description">token network</span>
                </td>
              </tr>
              <tr>
                <td>
                    <span class="name">tx_hash</span>
                </td>
                <td>
                  <span class="description">transaction hash</span>
                </td>
              </tr>
              <tr>
                <td>
                    <span class="name">tx_raw</span>
                </td>
                <td>
                  <span class="description">transaction in HEX</span>
                </td>
              </tr>
              <tr>
                <td>
                    <span class="name">status</span>
                </td>
                <td>
                  <span class="description">transaction status (created pending cancelled succeed failed)</span>
                </td>
              </tr>
              <tr>
                <td>
                    <span class="name">status_message</span>
                </td>
                <td>
                  <span class="description">transaction status message</span>
                </td>
              </tr>
              <tr>
                <td>
                    <span class="name">createdAt</span>
                </td>
                <td>
                  <span class="description">transaction creation timestamp</span>
                </td>
              </tr>
              <tr>
                <td>
                    <span class="name">updatedAt</span>
                </td>
                <td>
                  <span class="description">transaction update timestamp</span>
                </td>
              </tr>
            </tbody>
          </table>

          <h3>Request</h3>

            <h4>Headers</h4>
            <pre class="request headers">Api-Key: 28ieQrVqi5ZQXd77y+pgiuJGLsFfwkWO
Api-Transaction-Key: AN4V5F0axW5No8VNn/7RQz7RuCbML0Kl</pre>

          <h4>Route</h4>
          <pre class="request route highlight">POST /api/v1/projects/61/blockchain_transactions</pre>


            <h4>Body</h4>
            <pre class="request body">{
  "body": {
    "data": {
      "transaction": {
        "source": "0x42D00fC2Efdace4859187DE4865Df9BaA320D5dB",
        "nonce": 1
      },
      "blockchain_transactable_id": 29
    },
    "url": "http://example.org/api/v1/projects/61/blockchain_transactions",
    "method": "POST",
    "nonce": "49beb7a3cca61b01eeb129c46dbd22c4",
    "timestamp": "1610402954"
  },
  "proof": {
    "type": "Ed25519Signature2018",
    "verificationMethod": "O7zTH4xHnD1jRKheBTrpNN24Fg1ddL8DHKi/zgVCVpA=",
    "signature": "l2bg6S2QhEjfXAQc+NUnZPghMtP3sHTG+eX35t0TZYjtwKanDv4419+4GnI27VavuiJIl63tNzUWaQdnPkwTCQ=="
  }
}</pre>


            <h3>Response</h3>
              <h4>Headers</h4>
              <pre class="response headers">ETag: W/&quot;54893a258ba5fb2beacf4eeeec507b06&quot;</pre>
            <h4>Status</h4>
            <pre class="response status">201 Created</pre>
              <h4>Body</h4>
              <pre class="response body">{
  &quot;id&quot;: 6,
  &quot;blockchainTransactableId&quot;: 29,
  &quot;destination&quot;: &quot;0x42D00fC2Efdace4859187DE4865Df9BaA320D5dB&quot;,
  &quot;source&quot;: &quot;0x42D00fC2Efdace4859187DE4865Df9BaA320D5dB&quot;,
  &quot;amount&quot;: 50,
  &quot;nonce&quot;: 1,
  &quot;contractAddress&quot;: &quot;0x1D1592c28FFF3d3E71b1d29E31147846026A0a37&quot;,
  &quot;network&quot;: &quot;ethereum_ropsten&quot;,
  &quot;txHash&quot;: &quot;0xcee7721cf9a5ecee1b61ddeb1901685197c9b7e5368938fede61818189eb81d1&quot;,
  &quot;txRaw&quot;: &quot;0xf86701822710830186a0941d1592c28fff3d3e71b1d29e31147846026a0a3780b844a9059cbb00000000000000000000000042d00fc2efdace4859187de4865df9baa320d5db0000000000000000000000000000000000000000000000000000000000000032808080&quot;,
  &quot;status&quot;: &quot;created&quot;,
  &quot;statusMessage&quot;: null,
  &quot;createdAt&quot;: &quot;2021-01-11T22:09:15.075Z&quot;,
  &quot;updatedAt&quot;: &quot;2021-01-11T22:09:15.075Z&quot;,
  &quot;syncedAt&quot;: null
}</pre>
      </div>
    </div>
  </body>
</html>
